:020000040800F2
:1000000088070020D5000008F91D0008EF17000838
:1000100000000000000000000000000000000000E0
:10002000000000000000000000000000192300088C
:100030000000000000000000FB1D00081B2300085A
:10004000E7000008E7000008E7000008E7000008F4
:10005000E7000008E7000008E70000084506000880
:1000600000000000E7000008BD02000800000000DA
:10007000E7000008E7000008E700000800000000B3
:10008000E7000008E700000800000000E7000008A3
:1000900000000000E7000008E7000008E700000893
:1000A0000000000001200008E7000008E700000849
:1000B000E7000008E7000008E70000080000000073
:1000C0000348854600F088F800480047BD2A00082C
:1000D000880700200448804704480047FEE7FEE701
:1000E000FEE7FEE7FEE7FEE735230008C100000853
:1000F00030B50B46014600202022012409E00D46C0
:10010000D5409D4205D31D469540491B2546954047
:1001100040191546521E002DF1DC30BD03460B433D
:100120009B0703D009E008C9121F08C0042AFAD2AD
:1001300003E00B780370401C491C521EF9D2704733
:10014000D2B201E00270401C491EFBD2704700226F
:10015000F6E710B513460A4604461946FFF7F0FFC6
:10016000204610BD0321001D401E037812021A43D1
:10017000491EF9D510467047F0B51FB40646002059
:1001800082B005464024019100901BE0019922466F
:100190000F46304600F042F8049A059B801A9941B8
:1001A00010D310461946224600F028F8361A8F411F
:1001B0000197224601200021009F00F01FF8381807
:1001C0004D4100902046641E0028DFDC019B009812
:1001D0002946324607B0F0BD064C0125064E05E023
:1001E000E36807CC2B430C3C98471034B442F7D358
:1001F000FFF76AFF802C0008A02C000810B5202A09
:1002000004DB0146203A9140002010BD914020239C
:100210009C1A0346E3401943904010BD10B5202AB4
:1002200004DB0846203AD040002110BD0B46D340E5
:10023000D0402024A21A91400843194610BD000066
:10024000F8B50F4D0746002420460C214843395C81
:100250002A195170C61970782855301DFFF782FF92
:1002600000BA000AF17900020843A1004919641C90
:1002700024044860240CE7D0014801F0CFFDF8BD0C
:100280001400002010B501F08FFD01F0A9FD02F06F
:1002900067F810BD70B50024074D07E049194A887A
:1002A000C1B2402001F0F0FC641CA4B2A100685A65
:1002B0000028F3D170BD0000102C000810B50248D2
:1002C000806D00F05DFA10BDBC00002030B5056CFB
:1002D0000124AC40C56B6C60046863604368102BFC
:1002E000036803D099600068C26030BD9A600068FE
:1002F000C16030BDF8B51E46002829D0002E27D099
:100300007E235A43134BD7183C4640343288A38F80
:10031000891A8B4200DD0B46618F9DB2CB191118F3
:100320002A461846FFF7FAFE608F40196087318829
:10033000681E08183080A08F401B0004000CA087A6
:1003400006D1052060373875034840880838A087F3
:10035000F8BD00003C00002000000020F7B5064674
:1003600082B00020694608800190002E05D00399D4
:10037000002902D00499002902D0002005B0F0BD68
:10038000002069460880049833497E22504347186C
:100390003D4660353C46403454E0287D030002F081
:1003A00005F9090611161D252C333A415800705CD9
:1003B000AA2843D100206087725C01216187C25561
:1003C00029753BE0705C049900F0DCF836E0608F42
:1003D000725C411C6187C255032005E0608F725C2E
:1003E000411C6187C2550420287527E06B463046C2
:1003F000049A0399FFF77EFF20E0608F715C421C36
:100400006287C1550620EFE7608F715C421C6287EE
:10041000C1550720E8E7608F715C421C6287C155B7
:100420000820E1E7725C00202875552A00D004E01E
:10043000608F411C6187C255012001906946088880
:10044000401C08806846018803988142A5D3019822
:1004500094E70020C8E700003C00002010B500240D
:100460007E210F48FFF773FE06210E48FFF76FFE4F
:100470000C4800F0F1F80B48094943881846083841
:1004800080B27E22624352184032641C2406908758
:10049000240EF6D05804000C01F09CFE10BD0000A4
:1004A0003C00002000000020F8B5124F124E00253D
:1004B000002414E06000C019415D0029FCD0002D2B
:1004C00016D070882146E82251430C4A7388891857
:1004D0000A182946204600F015F8641CE4B20848C2
:1004E00000788442E6D36D1CEDB2022DE0D3F8BD56
:1004F0000020E7E724000020000000206401002025
:1005000020000020FFB57D2481B016460D46074629
:10051000E40001F01BFC002F12D1022D10D2002E9E
:100520000ED03A4630460499FFF718FF0E4A0021D4
:100530005155002807D00D4D2878022806D104E037
:100540000BA002F023F805B0F0BD0F24204601F007
:1005500019FC69880A480029F5D0083989B2001DBC
:10056000FFF76EFEEFE700002400002000000020EF
:100570004572726F722070617261210D0A00000075
:100580003C00002030B50C4A7E2413780B4A6143AE
:1005900089180A466032022B02D10309042B02D0CB
:1005A0000020107530BD0C464034638F5D1C65879C
:1005B00058540220F5E70000000000203C00002015
:1005C00070470000F8B5002469460C8015A001F0C2
:1005D000DDFF194E0CE0C1B26A46402001F04EF931
:1005E00068460288715B154801F0D0FF641CA4B214
:1005F000A500705B0028EED10024114E0CE0C1B2C2
:100600006A46402001F03AF968460288715B0B485F
:1006100001F0BCFF641CA4B2A500705B0028EED101
:10062000F8BD000072616461722069632076616CBC
:1006300075653A0D0A000000D82A0008681F0008F6
:10064000102C000803494020CA68904301D1402083
:10065000C86070470018024070B5144D04000BD0FC
:1006600001F01EFC2070014611A001F08FFF2078E0
:10067000022803D012A00DE0284670BD01F02CFC2A
:10068000083081B2618015A001F080FF6088742875
:1006900003D916A001F07AFFEEE701F02BFCA08051
:1006A00001461AA001F072FF002070BDFFFFFFFF9E
:1006B00064617461547970653A2025640D0A000004
:1006C0004572726F723A20756E737570706F7274C6
:1006D0002064617461547970650D0A00646174610D
:1006E0004C656E3A2025640D0A0000004572726F59
:1006F000723A20646174614C656E20697320746F76
:100700006F206C6F6E670D0A0000000063686972ED
:10071000704E756D3A2025640D0A000070B50024F6
:10072000024620325178022903D00421816301243A
:1007300022E001680B680E25AB430B6001680B6873
:100740005B085B000B600D4B0168994201D10121F0
:1007500007E00A4B1433994201D1102101E0FF2137
:100760000131064B083B5960012151700021117085
:10077000416B002900D08847204670BD0800024028
:10078000F0B4C16B0C6801680B680426056C324636
:10079000AA4022421AD05A0718D50A68920602D4F3
:1007A0000A68B2430A602A4A0168914201D10421D1
:1007B00007E0274A1432914201D1402101E0012192
:1007C0008902234A083A5160C16A25E00227AF40F6
:1007D0000246274001262032002F21D09F071FD537
:1007E0000B689B0604D40B680A24A3430B60567065
:1007F000174B0168994201D1022107E0144B1433D1
:10080000994201D1202101E001214902104B083B0E
:10081000596000211170816A002916D0F0BC084788
:100820000827AF40274210D01B070ED50B680E24B7
:10083000A3430B60036C31469940C36B59608663D8
:10084000567000211170016BE6E7F0BC70470000A4
:100850000800024070B5040026D014482568142111
:100860002818FFF745FC800020641148E06302214E
:100870002046203041702A680E49A3680A4061680A
:1008800026691943E3683343194363691943A3692C
:100890001943E3691943114329600021A16301222F
:1008A00042700170084670BD012070BDF8FFFDBFA9
:1008B000000002400FC0FFFFF8B504468C46203010
:1008C00001780025012909D001260670477800210A
:1008D000012F05D0017002252846F8BD0220F8BD81
:1008E00002274770A1632068016849084900016038
:1008F00061462046FFF7EAFCE06A002820680168AC
:1009000001D00E2205E004229143016020680168B5
:100910000A22114301602068016831430160DBE76E
:1009200070B5044600F09EF80546601C02D00448ED
:100930004068241800F096F8401BA042FAD370BD1E
:100940002C000020F0B500227BE001249440A44656
:10095000234075D04C68022C01D0122C0CD1D40845
:10096000A40027183D6A5407E40E0F26A640B5439D
:100970000E69A6402E433E62066855000324AC4033
:100980000F79A643BF07BF0FAF40374307604E68DC
:10099000012E05D0022E03D0112E01D0122E0ED121
:1009A0008668CF68A643AF4037438760476866468E
:1009B000B7430E79F606F60F96403E434660C6688A
:1009C000A6438C68AC403443C4604C68E40037D51F
:1009D00095081F4CAD002F193D6E9407E40E0F26AD
:1009E000A640B54305263607B04201D1002605E0F2
:1009F000184EB04201D1012600E00226A6402E4347
:100A0000134D3E66124E803634684F689C43FF0398
:100A100000D51C43346074684F689C43BF0300D505
:100A20001C4374602C684E689C43F60200D51C433E
:100A30002C606C684E689C43B60200D51C436C6009
:100A4000521C0B681C46D44000D07EE7F0BD00006D
:100A50000018024000040050002A01D08161704754
:100A60008162704701488068704700002C000020B8
:100A7000F8B504001BD027462037787E002803D124
:100A80003876204600F038FA24207876206801680D
:100A900049084900016000F0E9FA0546444E6068E3
:100AA000B04201D8434800E04348854201D20120CA
:100AB000F8BD42492846FFF71BFB21684A689209A6
:100AC000920102434A603A4962688A4206D9FF218C
:100AD0002D3148437D21C900FFF70AFB2168401CE6
:100AE0000A6A920992011043086231486668864298
:100AF0000AD87100681EFFF7FBFA401C0005000DC4
:100B0000042821D204201FE0A068009000283DD0D6
:100B1000314619204143681EFFF7EAFA2849401878
:100B200000053AD00098002839D0192031464143B9
:100B3000681EFFF7DDFA401C00050121000D890346
:100B400040180121C90308432168CA691D4B1A4096
:100B50001043C861A169E069014320680268C023AD
:100B60009A431143016020688168FE229143E26844
:100B70001143816020680168012211430160002057
:100B8000E06320217976E062B876F8BD7000311814
:100B9000681EFFF7ADFA401CC2E70120D4E77000E1
:100BA0003118681EFFF7A4FA401C0005000DC8E7C5
:100BB000A086010080841E0000093D0040420F0015
:100BC000014000000030FFFFFFB583B004460C9FDA
:100BD000FFF748FF264605462036707E20287AD14A
:100BE000192301227A492046009500F07EFF002853
:100BF000F5D1307E01286ED001213176206802685F
:100C0000D20702D102680A4302602068016801220B
:100C1000D20291430160222070764020B0760020FD
:100C2000E06327620D98E084E08CA0846948A062AC
:100C30000E980090019504A90EC9204600F060FEB0
:100C400000287DD1A08C01277F0200280DD001282B
:100C500013D00228206801681DD07A00114301607A
:100C60002068416980690090A5E020684169816938
:100C700000910168394301609DE02068026801210C
:100C800089028A43026072B62068416981690091D5
:100C9000016839430CE00122D2021143016072B6AF
:100CA00020684169816900910168012292029143A3
:100CB000016062B67FE0032856D801280CD00E9B55
:100CC0000228009514D000224349204600F00DFF71
:100CD000002850D115E078E02A4620460E9900F011
:100CE0007DFF002847D120680069216A087059E01B
:100CF00000223949204600F0F8FE00283BD172B6A8
:100D00001CE020680168012292029143016072B6E2
:100D100020680069216A0870206A401C2062A08C4B
:100D2000401EA084E08C401EE084009500222A49E9
:100D300020460E9B00F0D9FE00281CD1206800E060
:100D400019E001683943016020680069216A087070
:100D5000206A401C2062A18C491EA184E18C491E9E
:100D6000E18462B621681BE02A4620460E9900F015
:100D700035FF002802D0012007B0F0BD20680069CF
:100D8000216A0870206A401C2062A18C491EA1843F
:100D9000E18C491EE18421684A69D24352070AD492
:100DA00009690170206A401C2062A08C401EA0844A
:100DB000E08C401EE084A08C002800D07BE720203F
:100DC00070760020B0763076D6E70220D4E70000B7
:100DD000020010000000FFFF04000100FFB583B017
:100DE00004460C9FFFF73EFE254606462035687EEA
:100DF00020287AD1192301223D492046009600F08F
:100E000074FE002871D1287E01286ED00121297638
:100E100020680268D20702D102680A430260206893
:100E200001680122D20291430160212068764020AE
:100E3000A8760020E06327620D98E084E08CA0840F
:100E40002C48A0620E980090019604A90EC9204675
:100E500000F0CEFD01277F0200280ED130E032469F
:100E600020460E9900F0E9FE002809D0E06B042826
:100E700003D12068016839430160012007B0F0BD4B
:100E8000206A216800780861226A521C2262A08CC4
:100E9000401E80B2A084E18C491EE18421684B6928
:100EA000DB435B070CD400280DD010780861206A62
:100EB000401C2062A08C401EA084E08C401EE08478
:100EC000A08C0028CBD1324620460E9900F0E6FDDA
:100ED0000028CBD120680168394301602020687662
:100EE0000020A8762876C9E7FFE70220C6E70000C1
:100EF000020010000000FFFFF0B587B01421684623
:100F0000FFF725F9174CE06B01256D052843E063D9
:100F1000E06B28400590616B202001436163616BA9
:100F200001400591616B01436163616B01260140E2
:100F30000591022012216A4643C20C2781C26946EC
:100F40000948FFF7FFFC6946074804970096FFF73A
:100F5000F9FCE06A2843E062E06AA843E06207B077
:100F6000F0BD0000001002400014005070B50400F5
:100F70000FD021681048086021681048086003CC31
:100F800041602068083C21688860FFF76BFD0546DA
:100F900008E0012070BDFFF765FD401B302801D936
:100FA000032070BD2068C0680028F4D1216804487F
:100FB0000860002070BD0000CCCC0000555500003A
:100FC000AAAA0000006802490160002070470000E2
:100FD000AAAA0000024881684268891881607047A7
:100FE0002C00002010B50024032000F009F8002890
:100FF00001D0012401E000F027F8204610BD0000D8
:1010000070B50F4E002471680546002915D07D206B
:10101000C000FFF76DF801460A480068FFF768F85E
:1010200000F034FB002808D1042D06D20022294606
:10103000401E00F017F8356000E00124204670BD26
:101040002C0000202800002070470000002805DB4D
:10105000C106C90E012088400149086070470000A0
:1010600000E100E010B501F0AFFA10BD06480749F5
:1010700000688968064A4904490F8900515CC9061D
:10108000C90EC84070470000280000200010024030
:10109000602C000810B5016E01A001F077FA10BDB8
:1010A000687370692D3E4572726F72436F6465207C
:1010B0003D20256420000000F8B504460068426821
:1010C0008168C9434B0606D5CB0704D1D3435B06E1
:1010D00001D4E16C05E08B0706D4D3431B0603D48F
:1010E000216D20468847F8BD8B0601D54B06FAD402
:1010F000D3439B06F7D423464D064033002D09DB2E
:101100005D7F032D3DD0256E042635432566C568D9
:10111000856800958E0601214025002E07DB266E8E
:101120000E432666866800960668AE430660206E0B
:101130000028D8D020684668E027BE43466059772B
:10114000900722D020684168890889004160A06D1D
:10115000104E002808D04663A06DFFF7DFFA002884
:1011600002D0206E28432066606D0028BBD0466305
:10117000606DFFF7D3FA0028B5D0206E28432066B3
:10118000F8BDC16880680090F8BD2046FFF782FF77
:10119000F8BD000011200008F8B5040007D00026B3
:1011A00025464035A662687F002802D005E0012070
:1011B000F8BD2E77204600F047F802226A772068B3
:1011C00001684023994301600723E0681B029842AD
:1011D00001D9002101E0012109030F273F02B84294
:1011E00002D0984200D0A662276B002F05D198420A
:1011F00001D9226301E001202063A268606863696D
:10120000104322691A4310430123A2695B021A406A
:101210001043E2691043226A1043A26A1043226815
:101220001060626B606AA36910431B0C0427E268BC
:101230003B401A431043084321684860266601205A
:1012400068770020F8BD0000F0B505460068484901
:1012500087B088427ED1474C606B0127384360637A
:10126000606B38400590606B38436063606B38405A
:101270000590606B38436063606B38400590606B2D
:1012800038436063606B384005903A4840300068EE
:101290008A1438491043403108600868002610401D
:1012A000059002200090019002900390052069466D
:1012B00004960007FFF746FB402000900520694692
:1012C00004960007FFF73EFB0420009005206946C6
:1012D00004960007FFF736FB1020009005206946B2
:1012E00004960007FFF72EFBA06B3843A063A06BAA
:1012F000384005901F48403000681E49384340314F
:10130000086008681D4C384005901B48072141C4FF
:10131000802026606060E8680902083C884202D8A4
:101320002661666104E0FF20013020618000606179
:1013300001204003A661E0611048FFF78BFA0E48D8
:101340001C38C169032212039143C161C169114371
:10135000C16100E009E0AC65012211460A20656226
:10136000FFF780FE0A20FFF771FE07B0F0BD000016
:1013700000300140001002401C000240200100200B
:10138000F8B505468368002640350446002B03D196
:101390006068C71FFD3F09D0287F01280ED00127B4
:1013A0002F77687F01280BD0022670E00420687731
:1013B00013460A46204600F09DF8F8BD0220F8BD0D
:1013C000002921D0002A1FD0042068770020206641
:1013D0002164AA80EA80E0642065A087E08701217B
:1013E000C9038B4204D121680A685B109A430A60E2
:1013F00007220123E16812021B03914221684A6817
:1014000004D99A434A6014E0012640E01A434A6036
:10141000A16D01224969920291420AD121684A686C
:101420009A434A60E988C907E9881DD04908491CE0
:10143000E980A26D1849D162A26D18499162A26D2E
:1014400017491163A16D4863EB882168226C0C3148
:10145000A06DFFF731FA002808D0206E1021084354
:10146000206601266F7712E04908E1E720680168ED
:10147000490603D401684022114301602068416895
:1014800020221143416020684168394341600020B7
:1014900028773046F8BD0000452000085920000894
:1014A0002320000870B50F480F4C42882088510057
:1014B000101880B20125A61C2080814208D80B4953
:1014C0000846A838FFF75CFF75700020208070BDCB
:1014D0008242FCD105481118A838FFF751FF35703A
:1014E00070BD0000000000202200002064010020E8
:1014F00070470000F8B5054604464035287F0026B1
:1015000096468C4601280CD001272F77687F6168AA
:1015100001280CD0CA1FFD3A07D1A168002904D1C7
:1015200001E00220F8BD042801D0022695E06046C3
:10153000002821D0704600281ED0002B1CD0687FC8
:10154000042801D005206877002020666146A16349
:10155000A387E38771462164AB80EB80E06420655C
:1015600007220123E16812021B03914221684A68A5
:1015700004D99A434A601FE001266EE01A434A608C
:10158000616D4A69012189028A4206D1A28FD20780
:10159000E28F2AD05208521CE287A26D52698A4219
:1015A0000AD121684A689A434A60E988C907E988EC
:1015B0001DD04908491CE980697F042919D0A26D12
:1015C0002849D1622849A26D00209162A26D274965
:1015D0001163A16D4863EB882168226C0C31A06D0A
:1015E000FFF76AF900281FD108E05208D4E749083C
:1015F000E1E7A26D1E49D1621E49E4E72068416817
:1016000039434160616D0020C862616D8862616D1F
:101610000863616D4863E38F2268A16B0C32606DD3
:10162000FFF74AF9002806D0206E102108432066F3
:1016300001266F7711E020680168490603D401682C
:10164000402211430160206841682022114341601B
:10165000206841680222114341600020287730460B
:10166000F8BD00004F200008B1200008232000082A
:101670004520000859200008704770470249CA6990
:101680000243CA617047000000000140094910B5DB
:10169000401E884201D9012010BD074C6061032122
:1016A000081F00F091FF0020A061072020610020AA
:1016B00010BD0000FFFFFF0000E000E0F8B50400EF
:1016C00006D025464035687B0026002802D005E07C
:1016D0000120F8BD2E73204600F026F82420687300
:1016E0002068C16801277F03B943C160204600F02C
:1016F000BBFE206A002802D0204600F085FE20684C
:1017000001690122D20291430161206841690822E6
:10171000914341612068C1683943C160266520203A
:101720006873A8730020F8BD7047FFB507460446EC
:101730004037787B83B015460E46202855D1002EC1
:101740000AD0002D08D0A168C001814207D12069CC
:10175000002804D1F00702D0012007B0F0BD387B8B
:10176000012842D0012038730020206521207873A1
:10177000FFF778F90190258665860120A1680003AE
:10178000814202D12069002802D03546002611E0AE
:1017900000250FE000228021204600F0C7FE00282F
:1017A00015D1002D15D02168287848606D1C608EF9
:1017B000401E6086608E019B002806980090E9D14B
:1017C00000224021204600F0B1FE002808D003206E
:1017D000C3E730882168C005C00D4860B61CE6E745
:1017E0002020787300203873B7E70220B5E7FEE7C2
:1017F00010B50F49002804D0012804D0022805D1D3
:1018000003E00C4902E00C4900E00C490D480C4A89
:101810000260416000218160C160016141618161BC
:10182000C161FFF725F9002800D0FEE710BD0000D8
:10183000801A0600A0860100400D0300E09304001A
:10184000005400404C02002010B501684A69D243A0
:1018500052050ED4084A4A610022C2622023C118F0
:101860004B768A76C36B04242343C3630A76012034
:1018700010BD002010BD0000FFFBFFFFF7B588B0D2
:1018800000226B461A8303910490032406AE9A83C8
:10189000154664270FE0022007A90091019001235B
:1018A00002971048039A0499FFF78EF9050007D0B4
:1018B0000120FFF735F82046641EE4B20028EAD183
:1018C0006846808B002D40BA308003D006A000F01F
:1018D0005DFEFEE76846018B0A98018000200BB090
:1018E000F0BD00004C020020505933325F493243B2
:1018F0005F5772697465204572726F720D0A00003D
:10190000FFB5044600680F46016881B01D460122FC
:101910009202114301602068016892101143016036
:101920000B9800900022314920460A9B00F0DDF818
:10193000002857D1FE202168384008612B492046F5
:10194000491C0B9B0A9A00F003F900284AD1206831
:1019500041698069009020460B9A0A9900F06DF960
:1019600001267602002807D0E06B04283AD12068CF
:1019700001683143016035E0284603990128CDB262
:1019800009D0080A2168086120460B9A0A9900F0DC
:1019900054F90028E8D12068056120460B9A0A997D
:1019A00000F04BF90028DFD120680168FF220132E6
:1019B000114301600B98009000220C4920460A9BBD
:1019C00000F093F800280DD1012007432168F8B2F8
:1019D000086106492046491C0B9B0A9A00F0B8F89A
:1019E000002800D0012005B0F0BD0000010001007A
:1019F000FFB5044600680D46016881B01646FF2217
:101A00000132114301600B980090002222492046C8
:101A10000A9B00F06AF800283AD1FE2005402068B1
:101A200005611D492046491C0B9B0A9A00F090F85D
:101A300000282DD1206841698069009020460B9ACA
:101A40000A9900F0FAF801277F02002807D0E06B1E
:101A500004281DD1206801683943016018E004980A
:101A6000F5B2012809D02168300A086120460B9A96
:101A70000A9900F0E2F80028E9D1206805610649DA
:101A800020467F310B9B0A9A00F062F8002800D0B4
:101A9000012005B0F0BD00000100010070B5164640
:101AA0000D4604460FE02046FFF7CEFE002801D089
:101AB000012070BD681C06D0FEF7D4FF801BA84231
:101AC00008D8002D06D020684069C0434007EAD4FA
:101AD000002070BD0021E1622022A01842768176AC
:101AE000E36B1343E3630176E2E7FFB504460802C4
:101AF00081B01D460E46070E09E0681C07D0FEF7B0
:101B0000B1FF0A99401AA84211D8002D0FD02068C1
:101B1000012F18D08169304688430004000C14D08E
:101B2000002003998842E8D0002005B0F0BD0021D4
:101B3000E1622022A01842768176E36B1343E363CF
:101B400001760120F1E74169E5E70120E9E70000BE
:101B5000FFB504460802000E81B0254616460F4622
:101B6000203500901FE020684069C043400510D434
:101B70002068016801225202114301602168164861
:101B800048610020E06220216976A876E16B04229A
:101B90001AE0701C07D0FEF765FF0499401AB042A6
:101BA0000CD8002E0AD000980128206812D0816934
:101BB000384688430004000C0AD0D4E70020E062D5
:101BC00020226A76A876E16B1143E1632876012032
:101BD00005B0F0BD4169EBE7FFFBFFFFF8B5054637
:101BE00017460E460446203515E04069C043C0063E
:101BF0000AD410202168C04348610020E0622021FF
:101C00006976A876E16B14E0FEF72CFFC01BB042AA
:101C100008D8002E06D020684169C9434906E4D49B
:101C20000020F8BD0020E06220226A76A876E16BF1
:101C30001143E16328760120F8BD70B516460D46C4
:101C400004460FE02046FFF7FFFD002801D00120E9
:101C500070BD681C06D0FEF705FF801BA84208D89F
:101C6000002D06D020684069C0430006EAD4002059
:101C700070BD0021E1622022A01842768176E36BDC
:101C80001343E3630176E2E71FB513460A460146B4
:101C900058BA6B469881022303A8642401930090EC
:101CA000029401230548FFF799F8002803D004A007
:101CB00000F06CFCFEE704B010BD00004C020020F8
:101CC000505933325F4932435F577269746520451A
:101CD00072726F720D0A000008B51248C26BC1140F
:101CE0000A43C263C06B084000900E484030016A4E
:101CF000012211430162016A8907FCD50B480A4998
:101D00000160032141607D21C90081600849C160F3
:101D1000FFF72CF9002803D006A000F037FCFEE7FF
:101D200008BD000000100240003000407803002091
:101D3000FF0F000048414C5F495744475F496E69B7
:101D400074204661696C65640D0A000010B5054891
:101D5000FFF738F9002803D003A000F017FCFEE7D6
:101D600010BD00007803002048414C5F49574447AC
:101D70005F52656672657368204661696C65640DC3
:101D80000A00000010B5074A01465088401C80B286
:101D90005080FEF7ADF9002902D1002000F02BF8A9
:101DA00010BD00001C00002000B50B4887B0426B3E
:101DB00002210A434263406B039108400590402092
:101DC0000090012001900020029069460348FEF730
:101DD000B9FD07B000BD0000001002400004005033
:101DE00010B5002240210248FEF736FE10BD00006B
:101DF00000040050704770477047704710B5FFF7F8
:101E0000F1F800F08FFAFFF7F5FF00F015FB032063
:101E1000FFF7EEFCFFF760FF10BD0000F8B50E4EB7
:101E20000546707805210446FEF762F9641C74705B
:101E300000290FD10024A000401940680090281903
:101E400043782A5D214605A000F0A0FB641C24060F
:101E5000240EF0D0F8BD0000080000206964783A34
:101E6000257520723A257520763A25752076616CA5
:101E70003A25750D0A00000070B50024074D07E0F3
:101E800049194A88C1B24020FFF7FEFE641CA4B283
:101E9000A100685A0028F3D170BD0000E82B0008AB
:101EA00038B5002469460C806A4601214020FFF7BE
:101EB000E5FC69460888C10401D501240AE0410710
:101EC00008D4C10601D5022404E0800701D503240B
:101ED00000E00424204638BD08B50020694608808B
:101EE0006A4604214020FFF7C9FC69460888C006FD
:101EF000400E08BD08B50020694608806A464421A6
:101F00004020FFF7BBFC6946088808BD70B500F0AB
:101F100045F800240DA000F039FB124D06E04019F1
:101F2000428811A000F032FB641CA4B2A000295A20
:101F30000029F4D1FF20F530FEF742FBFFF79CFFAC
:101F4000FEF7A8F9FEF73EFB70BD00007261646108
:101F50007220666C6173682076616C75653A0D0A53
:101F600000000000D82A0008253032583D253034C2
:101F7000580D0A0070B50024074D07E049194A883A
:101F8000C1B24020FFF780FE641CA4B2A100685AD1
:101F90000028F3D170BD0000D82A0008F8B500244D
:101FA000164F24E0052C03D2A8184288C9B219E0C4
:101FB00000200EE091420AD18000C0194288B95D2C
:101FC0004020FFF761FEB85B002806D00DE0401C02
:101FD00080B28600BA5B002AECD10848EC38291898
:101FE0004A88415D4020FFF74FFE641CA4B2034ABB
:101FF000A500EC3A515B0029D4D1F8BDC42B0008F0
:1020000010B50248FFF758F810BD0000BC000020D2
:1020100010B5406A002146221152C187FFF73AF8F5
:1020200010BD10B5406A01684A68920892004A6083
:10203000016E10221143016601225D210A54FFF74F
:1020400029F810BD10B5406AFFF752FA10BD10B55F
:10205000406AFFF712FB10BD70B50546446AFEF7F3
:1020600001FD02462868006880061DD4206841688A
:102070002025A943416020684168890889004160A2
:102080006421204600F043F8002800D02566002196
:1020900020464030C18001214177206E002803D0C6
:1020A0002046FEF7F7FF70BD2046FFF7FBF970BD35
:1020B00070B50546446AFEF7D5FC024628680068FC
:1020C000800620D4206841682025A943416064210E
:1020D000204600F058F8002802D0206E28432066E1
:1020E000206841688908890041600021E187204615
:1020F0004030C18001214177206E002803D0204666
:10210000FEF7C8FF70BD2046FFF7B6FA70BDF7B501
:1021100004464068FF26053682B01546B0420CD111
:102120000121A068C903884202D04911884204D124
:1021300020680168402291430160009500228021BF
:102140002046039B00F0AFF82027002813D16068D9
:10215000B04216D1A068B902884202D04911884223
:102160000FD103210095002249022046039B00F075
:102170005FF8002805D0206E38432066032005B0A4
:10218000F0BD0020FBE7F8B50F460B461546009260
:10219000032104460022C90200F04AF82026002844
:1021A00012D13B46002280212046009500F07BF8AA
:1021B000002809D103213B46002249022046009510
:1021C00000F036F8002803D0206E3043206603204C
:1021D000F8BD000010B51448124901600821C16122
:1021E00000218160416101610722C2628162016256
:1021F000816112024162C260416301220263416057
:10220000FEF7CAFF002800D0FEE701204002FFF7DA
:1022100035FA064804494288A8310348FFF7B0F868
:1022200010BD000000300140BC0000200000002074
:10223000F8B51D4616460F46044610E00321490234
:102240008F4202D1002E00D1007B681C07D0FEF720
:1022500009FC0699401AA84208D2002D06D0206831
:1022600081683940B142E9D10020F8BD2068416859
:10227000E022914341606068C11FFD390CD101210A
:10228000A068C903884202D04911884204D120685D
:1022900001684022914301600120403460770020B2
:1022A00020770320F8BDF8B51D4617460E460446B4
:1022B00009E0681C07D0FEF7D5FB0699401AA84232
:1022C0000BD2002D09D0206881683046884321D088
:1022D0000020B842EDD10020F8BD20684168E0221E
:1022E000914341606068C11FFD390CD10121A06894
:1022F000C903884202D04911884204D1206801688C
:102300004022914301600120403460770020207713
:102310000320F8BD0120DCE7704710B5FEF75AFE38
:1023200010BD0000024901480860704700366E0188
:102330002800002007480169074842680123120C61
:102340001204DB031A43114341600449C00388604F
:1023500070470000000FFF1F0010024000ED00E07A
:1023600000B50B4887B0416B012211434163406BBC
:102370006946104005902020009000200190022026
:102380000290039005200007FEF7DCFA07B000BDBD
:102390000010024000B51A4887B0426B01210A4381
:1023A0004263426B0A400592436B2022134343630E
:1023B000436B13400593C36B4A041343C363C06B61
:1023C0000091104005900220019003900920049094
:1023D0000291052069460007FEF7B4FA0420009038
:1023E000049069460748FEF7ADFA012200211C203F
:1023F000FEF738FE1C20FEF729FE07B000BD0000E6
:10240000001002400014005010B5018C490612D58E
:1024100001684A6901231B03446A9A4322434A61C3
:10242000416A994207D101684A6903235B03806AC4
:102430009A4302434A6110BD10B5FFF7ABFF09484C
:10244000074901607D21C902416000218160C160AE
:10245000016181610C214161FFF730F910BD00007D
:10246000004400409C02002070B5044600680169E9
:10247000012252039143E26811430161A16820697E
:102480000143606901432068C268274B1A400A4330
:10249000C2602068E16942690123DB029A430A4372
:1024A000426120684169032212029143A2691143EB
:1024B0004161E06998421AD1FEF7D8FD616819229E
:1024C00049005043FDF714FE05466421FDF710FE58
:1024D000060164214843281AC0003230FDF708FE87
:1024E000F8210140490071184007400F18E0FEF73D
:1024F000BDFD6168192289005043FDF7F9FD0546CD
:102500006421FDF7F5FD060164214843281A000106
:102510003230FDF7EDFDF021014071180007000F8A
:1025200008182168886070BDF3E9FFFFFFB581B02E
:102530001E46174605460A9C1CE0601C1AD0002C5B
:1025400004D0FEF78FFA801BA04213D92868C16817
:10255000FF22A1329143C1602868416949084900BE
:102560004161202040356873A87300202873032040
:1025700005B0F0BD286801680298884304D00020A7
:10258000B842DAD00020F3E70120F9E70FB410B524
:1025900003A9044B044A029800F048F810BC08BC98
:1025A00004B01847A12A00083800002030B474464F
:1025B000641E2578641CAB4200D21D46635D5B003F
:1025C000E31830BC184700008307FF22DB0E9A4057
:1025D0008907090E9940002808DB830809489B00F9
:1025E0001818036893430B43036070470007000FFC
:1025F0000838830804489B001818C36993430B43A9
:10260000C361704700E400E000ED00E002E008C8AC
:10261000121F08C1002AFAD170477047002001E05C
:1026200001C1121F002AFBD170470000FFB591B015
:102630000F460546002606E025280AD0149A13996D
:1026400090476D1C761C28780028F5D1304615B0CF
:10265000F0BD002400940121F34A029400E00443F9
:102660006D1C2B780846203B98401042F7D1287803
:102670002A280ED0022128780246303A092A15D895
:10268000009A0A235A43303A80180C436D1C00907C
:10269000F1E701CF0090002805DA01204003044350
:1026A000009840420090022004436D1C28782E2898
:1026B00015D10420044368786D1C2A280AD101CF63
:1026C0006D1C02900BE002990A22514330394018E8
:1026D0006D1C02902878014630390929F3D92878F1
:1026E0006C2810D006DC4C281AD068280ED06A2836
:1026F00017D104E0742813D07A2812D110E00120F9
:10270000400504430CE00121090501E0032109050E
:102710000C436978814203D10120000524186D1C07
:102720006D1C287803906E281ED00CDC632831D0F5
:1027300004DC00288AD0582811D1B2E064287BD06C
:1027400069280CD178E073282DD004DC6F2870D074
:10275000702804D1A7E075286CD078286BD0149A23
:1027600013999047761C62E06002400F022807D060
:1027700003280AD0042838680AD006603F1D56E0B6
:102780003868F11706604160F8E738680680F5E7B9
:102790000670F3E73878694608740020487404A886
:1027A0000390012003E0386803900020C0433F1DE0
:1027B00061070FD5002101E00199491C029A01919E
:1027C000914213DA8142F7DB019A0399895C00296F
:1027D000F2D10BE0002101E00199491C01918142F5
:1027E000FADB019A0399895C0029F5D101990098D7
:1027F000139A401A00902146149B00F03BF901996E
:102800008019461807E0039803990078491C039142
:10281000149A139990470198401E0190401CF2D1E0
:102820002146149B139A009800F014F986196D1C28
:1028300009E741E033E034E00A20002104900591EB
:102840006002410F022905D001CFC2179446032927
:1028500005D007E0FF1DFF08FF0003CF06E000B230
:10286000C2179446042902D140B2C1178C460022F7
:102870006146944506DA0A460021404291418C4661
:102880002D2102E0210504D52B216A461176012174
:1028900003E0E10701D02021F7E7019154E00A208D
:1028A0000BE0102009E010200490002104200443D4
:1028B00008200591029003E0082000210591049072
:1028C0006002410F022905D001CF0022944603295E
:1028D00006D006E0FF1DFF08FF0003CF8C4603E093
:1028E00080B2042900D1C0B20021019121072BD56B
:1028F0000399702906D0049A1021059B4A401A4377
:1029000005D00EE040216A461176012108E06146BB
:10291000014306D030216A4611760399517602218F
:102920000191049A0821059B4A401A430CD1614643
:10293000014301D1610707D530216A461176012193
:1029400001910299491E02910399582904D037A197
:1029500003910FA90F910DE039A1F9E76146059B9D
:10296000049AFDF709FC039B8C469B5C0F9A521E50
:102970000F92137061460143F0D10F9807A9081A0E
:1029800020300390600704D501200004844302989E
:1029900001E0012002900399884201DD401A00E025
:1029A000002041180290019809180098401A0090E0
:1029B000E00306D42146149B139A009800F05AF8BD
:1029C00086190020049008E006A9085C149A13995F
:1029D00090470498401C761C049001998842F3DBD0
:1029E000E0030CD52146149B139A009800F042F89E
:1029F000861904E0149A302013999047761C0299A6
:102A0000481E02900029F5DC08E00F980F99007825
:102A1000491C0F91149A13999047761C0399481EEC
:102A200003900029F1DCFBE6092801003031323344
:102A300034353637383961626364656600000000FA
:102A400030313233343536373839414243444546E4
:102A500000000000F8B5044600251E46174688040D
:102A600004D405E039462020B0476D1C641EF9D51A
:102A70002846F8BDFFB50446002581B01E46C803B0
:102A800001D5302700E02027880404D505E038462A
:102A90000399B0476D1C641EF9D5284605B0F0BDFA
:102AA00013B5044B012269460348FEF73EFE009829
:102AB0001CBD0000FFFF00009C020020FFF79EF9F4
:102AC000FFF758FAFFF722FAFDF7DCFBFDF7C6FC2B
:102AD000FDF7EAFCFCE700000100000067000000D1
:102AE000720050064000074241000400420001000D
:102AF0004300803844002000450001004600D0011A
:102B0000470000104800803E490000204A00409CD9
:102B10004B0000004C00F0D24D0000004E000100C0
:102B20004F0000005000701751006A005200C0CFE3
:102B30005300020A540022225500000056007A0079
:102B40005700FFFF580018FE590000005A0000000F
:102B50005B0022005C0022005D0019195E0000FF8E
:102B60006100EF016200EF016300EF016400EF011B
:102B7000700020106C0080886D0040997200500633
:102B8000670000006600F0F06E00FC8F7600210008
:102B90000600FE1104001B02090001690A0000C2C0
:102BA0000B001AC002001A20050020000D000020B2
:102BB0000E0000200100308E410064C84000070272
:102BC00000000000700020106C0080886D000088FC
:102BD00072005006670000006600F0F06E00FC0313
:102BE000410064C800000000410074C87200130670
:102BF0006C0090996D00C0997000A02E6E00FC8B47
:102C00006600F0F867004010690006000000000050
:102C1000140002021500041B170001022000537764
:102C20002100E26C220053272300E21C240010271D
:102C3000250010272600102727001027280010271E
:102C4000290010272A0010272B0010272C001027FE
:102C50002D0010272E0010272F0010270000000045
:102C60000000000000000000000000000000000064
:102C7000010000000200000003000000040000004A
:102C8000A02C0008000000203C0000000C260008DA
:102C9000DC2C00083C0000204C0700001C2600082B
:102CA0000000000000000000000000000000000024
:102CB0000000000000000000000000000000000014
:102CC000010000000000000000127A000400000073
:0C2CD000010000000000000000000000F7
:04000005080000C12E
:00000001FF
